{
  "contractName": "Product",
  "abi": [
    {
      "inputs": [],
      "name": "itemCount",
      "outputs": [
        {
          "internalType": "uint256",
          "name": "",
          "type": "uint256"
        }
      ],
      "stateMutability": "view",
      "type": "function",
      "constant": true
    },
    {
      "inputs": [
        {
          "internalType": "uint256",
          "name": "",
          "type": "uint256"
        }
      ],
      "name": "items",
      "outputs": [
        {
          "internalType": "uint256",
          "name": "id",
          "type": "uint256"
        },
        {
          "internalType": "address",
          "name": "owner",
          "type": "address"
        },
        {
          "internalType": "string",
          "name": "name",
          "type": "string"
        },
        {
          "internalType": "string",
          "name": "description",
          "type": "string"
        },
        {
          "internalType": "uint256",
          "name": "price",
          "type": "uint256"
        },
        {
          "internalType": "bool",
          "name": "purchased",
          "type": "bool"
        }
      ],
      "stateMutability": "view",
      "type": "function",
      "constant": true
    },
    {
      "inputs": [],
      "name": "getItemCount",
      "outputs": [
        {
          "internalType": "uint256",
          "name": "",
          "type": "uint256"
        }
      ],
      "stateMutability": "view",
      "type": "function",
      "constant": true
    },
    {
      "inputs": [
        {
          "internalType": "uint256",
          "name": "_id",
          "type": "uint256"
        }
      ],
      "name": "getItemById",
      "outputs": [
        {
          "components": [
            {
              "internalType": "uint256",
              "name": "id",
              "type": "uint256"
            },
            {
              "internalType": "address",
              "name": "owner",
              "type": "address"
            },
            {
              "internalType": "string",
              "name": "name",
              "type": "string"
            },
            {
              "internalType": "string",
              "name": "description",
              "type": "string"
            },
            {
              "internalType": "uint256",
              "name": "price",
              "type": "uint256"
            },
            {
              "internalType": "bool",
              "name": "purchased",
              "type": "bool"
            }
          ],
          "internalType": "struct Product.Item",
          "name": "",
          "type": "tuple"
        }
      ],
      "stateMutability": "view",
      "type": "function",
      "constant": true
    },
    {
      "inputs": [
        {
          "internalType": "string",
          "name": "_name",
          "type": "string"
        },
        {
          "internalType": "string",
          "name": "_description",
          "type": "string"
        },
        {
          "internalType": "uint256",
          "name": "_price",
          "type": "uint256"
        }
      ],
      "name": "createItem",
      "outputs": [],
      "stateMutability": "nonpayable",
      "type": "function"
    },
    {
      "inputs": [
        {
          "internalType": "uint256",
          "name": "_id",
          "type": "uint256"
        }
      ],
      "name": "buyItem",
      "outputs": [],
      "stateMutability": "payable",
      "type": "function",
      "payable": true
    }
  ],
  "bytecode": "0x608060405234801561001057600080fd5b50610f07806100206000396000f3fe6080604052600436106100555760003560e01c80635fb6161c1461005a5780636bfb0d01146100835780637749cf23146100ae578063bfb231d2146100d9578063cd2f07101461011b578063e7fb74c714610158575b600080fd5b34801561006657600080fd5b50610081600480360381019061007c91906109c4565b610174565b005b34801561008f57600080fd5b506100986102a5565b6040516100a59190610a5e565b60405180910390f35b3480156100ba57600080fd5b506100c36102ab565b6040516100d09190610a5e565b60405180910390f35b3480156100e557600080fd5b5061010060048036038101906100fb9190610a79565b6102b5565b60405161011296959493929190610b8a565b60405180910390f35b34801561012757600080fd5b50610142600480360381019061013d9190610a79565b61042e565b60405161014f9190610d00565b60405180910390f35b610172600480360381019061016d9190610a79565b610603565b005b6040518060c0016040528060015481526020013373ffffffffffffffffffffffffffffffffffffffff1681526020018481526020018381526020018281526020016000151581525060008060015481526020019081526020016000206000820151816000015560208201518160010160006101000a81548173ffffffffffffffffffffffffffffffffffffffff021916908373ffffffffffffffffffffffffffffffffffffffff160217905550604082015181600201908051906020019061023d929190610743565b50606082015181600301908051906020019061025a929190610743565b506080820151816004015560a08201518160050160006101000a81548160ff0219169083151502179055509050506001600081548092919061029b90610d51565b9190505550505050565b60015481565b6000600154905090565b60006020528060005260406000206000915090508060000154908060010160009054906101000a900473ffffffffffffffffffffffffffffffffffffffff169080600201805461030490610dc8565b80601f016020809104026020016040519081016040528092919081815260200182805461033090610dc8565b801561037d5780601f106103525761010080835404028352916020019161037d565b820191906000526020600020905b81548152906001019060200180831161036057829003601f168201915b50505050509080600301805461039290610dc8565b80601f01602080910402602001604051908101604052809291908181526020018280546103be90610dc8565b801561040b5780601f106103e05761010080835404028352916020019161040b565b820191906000526020600020905b8154815290600101906020018083116103ee57829003601f168201915b5050505050908060040154908060050160009054906101000a900460ff16905086565b6104366107c9565b6000808381526020019081526020016000206040518060c0016040529081600082015481526020016001820160009054906101000a900473ffffffffffffffffffffffffffffffffffffffff1673ffffffffffffffffffffffffffffffffffffffff1673ffffffffffffffffffffffffffffffffffffffff1681526020016002820180546104c390610dc8565b80601f01602080910402602001604051908101604052809291908181526020018280546104ef90610dc8565b801561053c5780601f106105115761010080835404028352916020019161053c565b820191906000526020600020905b81548152906001019060200180831161051f57829003601f168201915b5050505050815260200160038201805461055590610dc8565b80601f016020809104026020016040519081016040528092919081815260200182805461058190610dc8565b80156105ce5780601f106105a3576101008083540402835291602001916105ce565b820191906000526020600020905b8154815290600101906020018083116105b157829003601f168201915b50505050508152602001600482015481526020016005820160009054906101000a900460ff1615151515815250509050919050565b6000808281526020019081526020016000206004015434101561065b576040517f08c379a000000000000000000000000000000000000000000000000000000000815260040161065290610e45565b60405180910390fd5b60008082815260200190815260200160002060050160009054906101000a900460ff16156106be576040517f08c379a00000000000000000000000000000000000000000000000000000000081526004016106b590610eb1565b60405180910390fd5b3360008083815260200190815260200160002060010160006101000a81548173ffffffffffffffffffffffffffffffffffffffff021916908373ffffffffffffffffffffffffffffffffffffffff160217905550600160008083815260200190815260200160002060050160006101000a81548160ff02191690831515021790555050565b82805461074f90610dc8565b90600052602060002090601f01602090048101928261077157600085556107b8565b82601f1061078a57805160ff19168380011785556107b8565b828001600101855582156107b8579182015b828111156107b757825182559160200191906001019061079c565b5b5090506107c59190610817565b5090565b6040518060c0016040528060008152602001600073ffffffffffffffffffffffffffffffffffffffff1681526020016060815260200160608152602001600081526020016000151581525090565b5b80821115610830576000816000905550600101610818565b5090565b6000604051905090565b600080fd5b600080fd5b600080fd5b600080fd5b6000601f19601f8301169050919050565b7f4e487b7100000000000000000000000000000000000000000000000000000000600052604160045260246000fd5b61089b82610852565b810181811067ffffffffffffffff821117156108ba576108b9610863565b5b80604052505050565b60006108cd610834565b90506108d98282610892565b919050565b600067ffffffffffffffff8211156108f9576108f8610863565b5b61090282610852565b9050602081019050919050565b82818337600083830152505050565b600061093161092c846108de565b6108c3565b90508281526020810184848401111561094d5761094c61084d565b5b61095884828561090f565b509392505050565b600082601f83011261097557610974610848565b5b813561098584826020860161091e565b91505092915050565b6000819050919050565b6109a18161098e565b81146109ac57600080fd5b50565b6000813590506109be81610998565b92915050565b6000806000606084860312156109dd576109dc61083e565b5b600084013567ffffffffffffffff8111156109fb576109fa610843565b5b610a0786828701610960565b935050602084013567ffffffffffffffff811115610a2857610a27610843565b5b610a3486828701610960565b9250506040610a45868287016109af565b9150509250925092565b610a588161098e565b82525050565b6000602082019050610a736000830184610a4f565b92915050565b600060208284031215610a8f57610a8e61083e565b5b6000610a9d848285016109af565b91505092915050565b600073ffffffffffffffffffffffffffffffffffffffff82169050919050565b6000610ad182610aa6565b9050919050565b610ae181610ac6565b82525050565b600081519050919050565b600082825260208201905092915050565b60005b83811015610b21578082015181840152602081019050610b06565b83811115610b30576000848401525b50505050565b6000610b4182610ae7565b610b4b8185610af2565b9350610b5b818560208601610b03565b610b6481610852565b840191505092915050565b60008115159050919050565b610b8481610b6f565b82525050565b600060c082019050610b9f6000830189610a4f565b610bac6020830188610ad8565b8181036040830152610bbe8187610b36565b90508181036060830152610bd28186610b36565b9050610be16080830185610a4f565b610bee60a0830184610b7b565b979650505050505050565b610c028161098e565b82525050565b610c1181610ac6565b82525050565b600082825260208201905092915050565b6000610c3382610ae7565b610c3d8185610c17565b9350610c4d818560208601610b03565b610c5681610852565b840191505092915050565b610c6a81610b6f565b82525050565b600060c083016000830151610c886000860182610bf9565b506020830151610c9b6020860182610c08565b5060408301518482036040860152610cb38282610c28565b91505060608301518482036060860152610ccd8282610c28565b9150506080830151610ce26080860182610bf9565b5060a0830151610cf560a0860182610c61565b508091505092915050565b60006020820190508181036000830152610d1a8184610c70565b905092915050565b7f4e487b7100000000000000000000000000000000000000000000000000000000600052601160045260246000fd5b6000610d5c8261098e565b91507fffffffffffffffffffffffffffffffffffffffffffffffffffffffffffffffff8203610d8e57610d8d610d22565b5b600182019050919050565b7f4e487b7100000000000000000000000000000000000000000000000000000000600052602260045260246000fd5b60006002820490506001821680610de057607f821691505b602082108103610df357610df2610d99565b5b50919050565b7f4e6f7420656e6f7567682045746865722073656e740000000000000000000000600082015250565b6000610e2f601583610af2565b9150610e3a82610df9565b602082019050919050565b60006020820190508181036000830152610e5e81610e22565b9050919050565b7f4974656d20616c72656164792070757263686173656400000000000000000000600082015250565b6000610e9b601683610af2565b9150610ea682610e65565b602082019050919050565b60006020820190508181036000830152610eca81610e8e565b905091905056fea264697066735822122073589dfadab0c829981ba1d69e3d4ddce410ac1cfb3371d6f8469e0298d39df564736f6c634300080d0033",
  "immutableReferences": {},
  "source": "// SPDX-License-Identifier: MIT\npragma solidity >=0.4.22 <0.9.0;\n\ncontract Product {\n  struct Item {\n    uint id;\n    address owner;\n    string name;\n    string description;\n    uint price;\n    bool purchased;\n  }\n\n  mapping(uint => Item) public items;\n  uint public itemCount;\n\n  function getItemCount() public view returns(uint) {\n    return itemCount;\n  }\n\n  function getItemById(uint _id) public view returns(Item memory) {\n    return items[_id];\n  }\n\n  function createItem(string memory _name, string memory _description, uint _price) public {\n    items[itemCount] = Item(itemCount, msg.sender, _name, _description, _price, false);\n    itemCount++;\n  }\n\n  function buyItem(uint _id) public payable {\n    require(msg.value >= items[_id].price, \"Not enough Ether sent\");\n    require(!items[_id].purchased, \"Item already purchased\");\n\n    items[_id].owner = msg.sender;\n    items[_id].purchased = true;\n  }\n}\n",
  "sourcePath": "/home/leonardyeo/Desktop/dev/product-marketplace/contracts/Product.sol",
  "compiler": {
    "name": "solc",
    "version": "0.8.13+commit.abaa5c0e.Emscripten.clang"
  },
  "schemaVersion": "3.4.14",
  "updatedAt": "2023-08-06T08:27:54.072Z",
  "networkType": "ethereum",
  "devdoc": {
    "kind": "dev",
    "methods": {},
    "version": 1
  },
  "userdoc": {
    "kind": "user",
    "methods": {},
    "version": 1
  }
}