{
  "contractName": "Product",
  "abi": [
    {
      "inputs": [],
      "name": "itemCount",
      "outputs": [
        {
          "internalType": "uint256",
          "name": "",
          "type": "uint256"
        }
      ],
      "stateMutability": "view",
      "type": "function",
      "constant": true
    },
    {
      "inputs": [
        {
          "internalType": "uint256",
          "name": "",
          "type": "uint256"
        }
      ],
      "name": "items",
      "outputs": [
        {
          "internalType": "uint256",
          "name": "id",
          "type": "uint256"
        },
        {
          "internalType": "address",
          "name": "owner",
          "type": "address"
        },
        {
          "internalType": "string",
          "name": "name",
          "type": "string"
        },
        {
          "internalType": "string",
          "name": "description",
          "type": "string"
        },
        {
          "internalType": "uint256",
          "name": "price",
          "type": "uint256"
        },
        {
          "internalType": "bool",
          "name": "purchased",
          "type": "bool"
        }
      ],
      "stateMutability": "view",
      "type": "function",
      "constant": true
    },
    {
      "inputs": [
        {
          "internalType": "string",
          "name": "_name",
          "type": "string"
        },
        {
          "internalType": "string",
          "name": "_description",
          "type": "string"
        },
        {
          "internalType": "uint256",
          "name": "_price",
          "type": "uint256"
        }
      ],
      "name": "createItem",
      "outputs": [],
      "stateMutability": "nonpayable",
      "type": "function"
    },
    {
      "inputs": [
        {
          "internalType": "uint256",
          "name": "_id",
          "type": "uint256"
        }
      ],
      "name": "buyItem",
      "outputs": [],
      "stateMutability": "payable",
      "type": "function",
      "payable": true
    }
  ],
  "bytecode": "0x608060405234801561001057600080fd5b50610b33806100206000396000f3fe60806040526004361061003f5760003560e01c80635fb6161c146100445780636bfb0d011461006d578063bfb231d214610098578063e7fb74c7146100da575b600080fd5b34801561005057600080fd5b5061006b60048036038101906100669190610719565b6100f6565b005b34801561007957600080fd5b50610082610227565b60405161008f91906107b3565b60405180910390f35b3480156100a457600080fd5b506100bf60048036038101906100ba91906107ce565b61022d565b6040516100d1969594939291906108df565b60405180910390f35b6100f460048036038101906100ef91906107ce565b6103a6565b005b6040518060c0016040528060015481526020013373ffffffffffffffffffffffffffffffffffffffff1681526020018481526020018381526020018281526020016000151581525060008060015481526020019081526020016000206000820151816000015560208201518160010160006101000a81548173ffffffffffffffffffffffffffffffffffffffff021916908373ffffffffffffffffffffffffffffffffffffffff16021790555060408201518160020190805190602001906101bf9291906104e6565b5060608201518160030190805190602001906101dc9291906104e6565b506080820151816004015560a08201518160050160006101000a81548160ff0219169083151502179055509050506001600081548092919061021d9061097d565b9190505550505050565b60015481565b60006020528060005260406000206000915090508060000154908060010160009054906101000a900473ffffffffffffffffffffffffffffffffffffffff169080600201805461027c906109f4565b80601f01602080910402602001604051908101604052809291908181526020018280546102a8906109f4565b80156102f55780601f106102ca576101008083540402835291602001916102f5565b820191906000526020600020905b8154815290600101906020018083116102d857829003601f168201915b50505050509080600301805461030a906109f4565b80601f0160208091040260200160405190810160405280929190818152602001828054610336906109f4565b80156103835780601f1061035857610100808354040283529160200191610383565b820191906000526020600020905b81548152906001019060200180831161036657829003601f168201915b5050505050908060040154908060050160009054906101000a900460ff16905086565b600080828152602001908152602001600020600401543410156103fe576040517f08c379a00000000000000000000000000000000000000000000000000000000081526004016103f590610a71565b60405180910390fd5b60008082815260200190815260200160002060050160009054906101000a900460ff1615610461576040517f08c379a000000000000000000000000000000000000000000000000000000000815260040161045890610add565b60405180910390fd5b3360008083815260200190815260200160002060010160006101000a81548173ffffffffffffffffffffffffffffffffffffffff021916908373ffffffffffffffffffffffffffffffffffffffff160217905550600160008083815260200190815260200160002060050160006101000a81548160ff02191690831515021790555050565b8280546104f2906109f4565b90600052602060002090601f016020900481019282610514576000855561055b565b82601f1061052d57805160ff191683800117855561055b565b8280016001018555821561055b579182015b8281111561055a57825182559160200191906001019061053f565b5b509050610568919061056c565b5090565b5b8082111561058557600081600090555060010161056d565b5090565b6000604051905090565b600080fd5b600080fd5b600080fd5b600080fd5b6000601f19601f8301169050919050565b7f4e487b7100000000000000000000000000000000000000000000000000000000600052604160045260246000fd5b6105f0826105a7565b810181811067ffffffffffffffff8211171561060f5761060e6105b8565b5b80604052505050565b6000610622610589565b905061062e82826105e7565b919050565b600067ffffffffffffffff82111561064e5761064d6105b8565b5b610657826105a7565b9050602081019050919050565b82818337600083830152505050565b600061068661068184610633565b610618565b9050828152602081018484840111156106a2576106a16105a2565b5b6106ad848285610664565b509392505050565b600082601f8301126106ca576106c961059d565b5b81356106da848260208601610673565b91505092915050565b6000819050919050565b6106f6816106e3565b811461070157600080fd5b50565b600081359050610713816106ed565b92915050565b60008060006060848603121561073257610731610593565b5b600084013567ffffffffffffffff8111156107505761074f610598565b5b61075c868287016106b5565b935050602084013567ffffffffffffffff81111561077d5761077c610598565b5b610789868287016106b5565b925050604061079a86828701610704565b9150509250925092565b6107ad816106e3565b82525050565b60006020820190506107c860008301846107a4565b92915050565b6000602082840312156107e4576107e3610593565b5b60006107f284828501610704565b91505092915050565b600073ffffffffffffffffffffffffffffffffffffffff82169050919050565b6000610826826107fb565b9050919050565b6108368161081b565b82525050565b600081519050919050565b600082825260208201905092915050565b60005b8381101561087657808201518184015260208101905061085b565b83811115610885576000848401525b50505050565b60006108968261083c565b6108a08185610847565b93506108b0818560208601610858565b6108b9816105a7565b840191505092915050565b60008115159050919050565b6108d9816108c4565b82525050565b600060c0820190506108f460008301896107a4565b610901602083018861082d565b8181036040830152610913818761088b565b90508181036060830152610927818661088b565b905061093660808301856107a4565b61094360a08301846108d0565b979650505050505050565b7f4e487b7100000000000000000000000000000000000000000000000000000000600052601160045260246000fd5b6000610988826106e3565b91507fffffffffffffffffffffffffffffffffffffffffffffffffffffffffffffffff82036109ba576109b961094e565b5b600182019050919050565b7f4e487b7100000000000000000000000000000000000000000000000000000000600052602260045260246000fd5b60006002820490506001821680610a0c57607f821691505b602082108103610a1f57610a1e6109c5565b5b50919050565b7f4e6f7420656e6f7567682045746865722073656e740000000000000000000000600082015250565b6000610a5b601583610847565b9150610a6682610a25565b602082019050919050565b60006020820190508181036000830152610a8a81610a4e565b9050919050565b7f4974656d20616c72656164792070757263686173656400000000000000000000600082015250565b6000610ac7601683610847565b9150610ad282610a91565b602082019050919050565b60006020820190508181036000830152610af681610aba565b905091905056fea26469706673582212209358df98f5a0377e525b0f04b375be7615ab389394dd67f3837b0687646b2c2c64736f6c634300080d0033",
  "immutableReferences": {},
  "source": "// SPDX-License-Identifier: MIT\npragma solidity >=0.4.22 <0.9.0;\n\ncontract Product {\n  struct Item {\n    uint id;\n    address owner;\n    string name;\n    string description;\n    uint price;\n    bool purchased;\n  }\n\n  mapping(uint => Item) public items;\n  uint public itemCount;\n\n  function createItem(string memory _name, string memory _description, uint _price) public {\n    items[itemCount] = Item(itemCount, msg.sender, _name, _description, _price, false);\n    itemCount++;\n  }\n\n  function buyItem(uint _id) public payable {\n    require(msg.value >= items[_id].price, \"Not enough Ether sent\");\n    require(!items[_id].purchased, \"Item already purchased\");\n\n    items[_id].owner = msg.sender;\n    items[_id].purchased = true;\n  }\n}\n",
  "sourcePath": "/home/leonardyeo/Desktop/dev/simple-storage/contracts/Product.sol",
  "compiler": {
    "name": "solc",
    "version": "0.8.13+commit.abaa5c0e.Emscripten.clang"
  },
  "schemaVersion": "3.4.14",
  "updatedAt": "2023-07-26T15:04:46.958Z",
  "networkType": "ethereum",
  "devdoc": {
    "kind": "dev",
    "methods": {},
    "version": 1
  },
  "userdoc": {
    "kind": "user",
    "methods": {},
    "version": 1
  }
}